{
  "_format": "hh-sol-artifact-1",
  "contractName": "Sora",
  "sourceName": "contracts/Sora.sol",
  "abi": [
    {
      "inputs": [],
      "stateMutability": "nonpayable",
      "type": "constructor"
    },
    {
      "anonymous": false,
      "inputs": [
        {
          "indexed": true,
          "internalType": "address",
          "name": "account",
          "type": "address"
        },
        {
          "indexed": true,
          "internalType": "address",
          "name": "operator",
          "type": "address"
        },
        {
          "indexed": false,
          "internalType": "bool",
          "name": "approved",
          "type": "bool"
        }
      ],
      "name": "ApprovalForAll",
      "type": "event"
    },
    {
      "anonymous": false,
      "inputs": [
        {
          "indexed": false,
          "internalType": "address",
          "name": "contractAddress",
          "type": "address"
        },
        {
          "indexed": false,
          "internalType": "uint256",
          "name": "listingId",
          "type": "uint256"
        }
      ],
      "name": "ListingDeleted",
      "type": "event"
    },
    {
      "anonymous": false,
      "inputs": [
        {
          "indexed": true,
          "internalType": "address",
          "name": "previousOwner",
          "type": "address"
        },
        {
          "indexed": true,
          "internalType": "address",
          "name": "newOwner",
          "type": "address"
        }
      ],
      "name": "OwnershipTransferred",
      "type": "event"
    },
    {
      "anonymous": false,
      "inputs": [
        {
          "indexed": false,
          "internalType": "address",
          "name": "contractAddress",
          "type": "address"
        },
        {
          "indexed": false,
          "internalType": "address",
          "name": "seller",
          "type": "address"
        },
        {
          "indexed": false,
          "internalType": "uint256",
          "name": "tokenId",
          "type": "uint256"
        },
        {
          "indexed": false,
          "internalType": "uint256",
          "name": "amount",
          "type": "uint256"
        },
        {
          "indexed": false,
          "internalType": "uint256",
          "name": "pricePerToken",
          "type": "uint256"
        },
        {
          "indexed": false,
          "internalType": "address[]",
          "name": "privateBuyer",
          "type": "address[]"
        },
        {
          "indexed": false,
          "internalType": "bool",
          "name": "privateSale",
          "type": "bool"
        },
        {
          "indexed": false,
          "internalType": "uint256",
          "name": "listingId",
          "type": "uint256"
        }
      ],
      "name": "TokenListed",
      "type": "event"
    },
    {
      "anonymous": false,
      "inputs": [
        {
          "indexed": false,
          "internalType": "address",
          "name": "contractAddress",
          "type": "address"
        },
        {
          "indexed": false,
          "internalType": "address",
          "name": "seller",
          "type": "address"
        },
        {
          "indexed": false,
          "internalType": "address",
          "name": "buyer",
          "type": "address"
        },
        {
          "indexed": false,
          "internalType": "uint256",
          "name": "tokenId",
          "type": "uint256"
        },
        {
          "indexed": false,
          "internalType": "uint256",
          "name": "amount",
          "type": "uint256"
        },
        {
          "indexed": false,
          "internalType": "uint256",
          "name": "pricePerToken",
          "type": "uint256"
        },
        {
          "indexed": false,
          "internalType": "bool",
          "name": "privateSale",
          "type": "bool"
        }
      ],
      "name": "TokenSold",
      "type": "event"
    },
    {
      "anonymous": false,
      "inputs": [
        {
          "indexed": true,
          "internalType": "address",
          "name": "operator",
          "type": "address"
        },
        {
          "indexed": true,
          "internalType": "address",
          "name": "from",
          "type": "address"
        },
        {
          "indexed": true,
          "internalType": "address",
          "name": "to",
          "type": "address"
        },
        {
          "indexed": false,
          "internalType": "uint256[]",
          "name": "ids",
          "type": "uint256[]"
        },
        {
          "indexed": false,
          "internalType": "uint256[]",
          "name": "values",
          "type": "uint256[]"
        }
      ],
      "name": "TransferBatch",
      "type": "event"
    },
    {
      "anonymous": false,
      "inputs": [
        {
          "indexed": true,
          "internalType": "address",
          "name": "operator",
          "type": "address"
        },
        {
          "indexed": true,
          "internalType": "address",
          "name": "from",
          "type": "address"
        },
        {
          "indexed": true,
          "internalType": "address",
          "name": "to",
          "type": "address"
        },
        {
          "indexed": false,
          "internalType": "uint256",
          "name": "id",
          "type": "uint256"
        },
        {
          "indexed": false,
          "internalType": "uint256",
          "name": "value",
          "type": "uint256"
        }
      ],
      "name": "TransferSingle",
      "type": "event"
    },
    {
      "anonymous": false,
      "inputs": [
        {
          "indexed": false,
          "internalType": "string",
          "name": "value",
          "type": "string"
        },
        {
          "indexed": true,
          "internalType": "uint256",
          "name": "id",
          "type": "uint256"
        }
      ],
      "name": "URI",
      "type": "event"
    },
    {
      "inputs": [
        {
          "internalType": "address",
          "name": "account",
          "type": "address"
        },
        {
          "internalType": "uint256",
          "name": "id",
          "type": "uint256"
        }
      ],
      "name": "balanceOf",
      "outputs": [
        {
          "internalType": "uint256",
          "name": "",
          "type": "uint256"
        }
      ],
      "stateMutability": "view",
      "type": "function"
    },
    {
      "inputs": [
        {
          "internalType": "address[]",
          "name": "accounts",
          "type": "address[]"
        },
        {
          "internalType": "uint256[]",
          "name": "ids",
          "type": "uint256[]"
        }
      ],
      "name": "balanceOfBatch",
      "outputs": [
        {
          "internalType": "uint256[]",
          "name": "",
          "type": "uint256[]"
        }
      ],
      "stateMutability": "view",
      "type": "function"
    },
    {
      "inputs": [
        {
          "internalType": "uint256",
          "name": "_listingId",
          "type": "uint256"
        }
      ],
      "name": "deleteListing",
      "outputs": [],
      "stateMutability": "nonpayable",
      "type": "function"
    },
    {
      "inputs": [
        {
          "internalType": "uint256",
          "name": "id",
          "type": "uint256"
        }
      ],
      "name": "exists",
      "outputs": [
        {
          "internalType": "bool",
          "name": "",
          "type": "bool"
        }
      ],
      "stateMutability": "view",
      "type": "function"
    },
    {
      "inputs": [
        {
          "internalType": "address",
          "name": "account",
          "type": "address"
        },
        {
          "internalType": "address",
          "name": "operator",
          "type": "address"
        }
      ],
      "name": "isApprovedForAll",
      "outputs": [
        {
          "internalType": "bool",
          "name": "",
          "type": "bool"
        }
      ],
      "stateMutability": "view",
      "type": "function"
    },
    {
      "inputs": [
        {
          "internalType": "address",
          "name": "contractAddress",
          "type": "address"
        },
        {
          "internalType": "uint256",
          "name": "tokenId",
          "type": "uint256"
        },
        {
          "internalType": "uint256",
          "name": "amount",
          "type": "uint256"
        },
        {
          "internalType": "uint256",
          "name": "price",
          "type": "uint256"
        },
        {
          "internalType": "address[]",
          "name": "privateBuyer",
          "type": "address[]"
        }
      ],
      "name": "listToken",
      "outputs": [
        {
          "internalType": "uint256",
          "name": "",
          "type": "uint256"
        }
      ],
      "stateMutability": "nonpayable",
      "type": "function"
    },
    {
      "inputs": [
        {
          "internalType": "string",
          "name": "tokenURI",
          "type": "string"
        },
        {
          "internalType": "uint256",
          "name": "tokenID",
          "type": "uint256"
        },
        {
          "internalType": "uint256",
          "name": "amount",
          "type": "uint256"
        },
        {
          "internalType": "uint256",
          "name": "price",
          "type": "uint256"
        },
        {
          "internalType": "address[]",
          "name": "privateBuyer",
          "type": "address[]"
        }
      ],
      "name": "mint",
      "outputs": [],
      "stateMutability": "nonpayable",
      "type": "function"
    },
    {
      "inputs": [],
      "name": "owner",
      "outputs": [
        {
          "internalType": "address",
          "name": "",
          "type": "address"
        }
      ],
      "stateMutability": "view",
      "type": "function"
    },
    {
      "inputs": [
        {
          "internalType": "uint256",
          "name": "listingId",
          "type": "uint256"
        },
        {
          "internalType": "uint256",
          "name": "amount",
          "type": "uint256"
        }
      ],
      "name": "purchaseToken",
      "outputs": [],
      "stateMutability": "payable",
      "type": "function"
    },
    {
      "inputs": [],
      "name": "renounceOwnership",
      "outputs": [],
      "stateMutability": "nonpayable",
      "type": "function"
    },
    {
      "inputs": [
        {
          "internalType": "address",
          "name": "from",
          "type": "address"
        },
        {
          "internalType": "address",
          "name": "to",
          "type": "address"
        },
        {
          "internalType": "uint256[]",
          "name": "ids",
          "type": "uint256[]"
        },
        {
          "internalType": "uint256[]",
          "name": "amounts",
          "type": "uint256[]"
        },
        {
          "internalType": "bytes",
          "name": "data",
          "type": "bytes"
        }
      ],
      "name": "safeBatchTransferFrom",
      "outputs": [],
      "stateMutability": "nonpayable",
      "type": "function"
    },
    {
      "inputs": [
        {
          "internalType": "address",
          "name": "from",
          "type": "address"
        },
        {
          "internalType": "address",
          "name": "to",
          "type": "address"
        },
        {
          "internalType": "uint256",
          "name": "id",
          "type": "uint256"
        },
        {
          "internalType": "uint256",
          "name": "amount",
          "type": "uint256"
        },
        {
          "internalType": "bytes",
          "name": "data",
          "type": "bytes"
        }
      ],
      "name": "safeTransferFrom",
      "outputs": [],
      "stateMutability": "nonpayable",
      "type": "function"
    },
    {
      "inputs": [
        {
          "internalType": "address",
          "name": "operator",
          "type": "address"
        },
        {
          "internalType": "bool",
          "name": "approved",
          "type": "bool"
        }
      ],
      "name": "setApprovalForAll",
      "outputs": [],
      "stateMutability": "nonpayable",
      "type": "function"
    },
    {
      "inputs": [
        {
          "internalType": "string",
          "name": "newuri",
          "type": "string"
        }
      ],
      "name": "setURI",
      "outputs": [],
      "stateMutability": "nonpayable",
      "type": "function"
    },
    {
      "inputs": [
        {
          "internalType": "bytes4",
          "name": "interfaceId",
          "type": "bytes4"
        }
      ],
      "name": "supportsInterface",
      "outputs": [
        {
          "internalType": "bool",
          "name": "",
          "type": "bool"
        }
      ],
      "stateMutability": "view",
      "type": "function"
    },
    {
      "inputs": [
        {
          "internalType": "uint256",
          "name": "id",
          "type": "uint256"
        }
      ],
      "name": "totalSupply",
      "outputs": [
        {
          "internalType": "uint256",
          "name": "",
          "type": "uint256"
        }
      ],
      "stateMutability": "view",
      "type": "function"
    },
    {
      "inputs": [
        {
          "internalType": "address",
          "name": "newOwner",
          "type": "address"
        }
      ],
      "name": "transferOwnership",
      "outputs": [],
      "stateMutability": "nonpayable",
      "type": "function"
    },
    {
      "inputs": [
        {
          "internalType": "uint256",
          "name": "tokenId",
          "type": "uint256"
        }
      ],
      "name": "uri",
      "outputs": [
        {
          "internalType": "string",
          "name": "",
          "type": "string"
        }
      ],
      "stateMutability": "view",
      "type": "function"
    },
    {
      "inputs": [],
      "name": "viewAllListings",
      "outputs": [
        {
          "components": [
            {
              "internalType": "address",
              "name": "contractAddress",
              "type": "address"
            },
            {
              "internalType": "address",
              "name": "seller",
              "type": "address"
            },
            {
              "internalType": "address[]",
              "name": "buyer",
              "type": "address[]"
            },
            {
              "internalType": "uint256",
              "name": "tokenId",
              "type": "uint256"
            },
            {
              "internalType": "uint256",
              "name": "amount",
              "type": "uint256"
            },
            {
              "internalType": "uint256",
              "name": "price",
              "type": "uint256"
            },
            {
              "internalType": "uint256",
              "name": "tokensAvailable",
              "type": "uint256"
            },
            {
              "internalType": "bool",
              "name": "privateListing",
              "type": "bool"
            },
            {
              "internalType": "bool",
              "name": "completed",
              "type": "bool"
            },
            {
              "internalType": "uint256",
              "name": "listingId",
              "type": "uint256"
            }
          ],
          "internalType": "struct Sora.Listing[]",
          "name": "",
          "type": "tuple[]"
        }
      ],
      "stateMutability": "view",
      "type": "function"
    },
    {
      "inputs": [
        {
          "internalType": "uint256",
          "name": "_id",
          "type": "uint256"
        }
      ],
      "name": "viewListingById",
      "outputs": [
        {
          "components": [
            {
              "internalType": "address",
              "name": "contractAddress",
              "type": "address"
            },
            {
              "internalType": "address",
              "name": "seller",
              "type": "address"
            },
            {
              "internalType": "address[]",
              "name": "buyer",
              "type": "address[]"
            },
            {
              "internalType": "uint256",
              "name": "tokenId",
              "type": "uint256"
            },
            {
              "internalType": "uint256",
              "name": "amount",
              "type": "uint256"
            },
            {
              "internalType": "uint256",
              "name": "price",
              "type": "uint256"
            },
            {
              "internalType": "uint256",
              "name": "tokensAvailable",
              "type": "uint256"
            },
            {
              "internalType": "bool",
              "name": "privateListing",
              "type": "bool"
            },
            {
              "internalType": "bool",
              "name": "completed",
              "type": "bool"
            },
            {
              "internalType": "uint256",
              "name": "listingId",
              "type": "uint256"
            }
          ],
          "internalType": "struct Sora.Listing",
          "name": "",
          "type": "tuple"
        }
      ],
      "stateMutability": "view",
      "type": "function"
    },
    {
      "inputs": [],
      "name": "viewStats",
      "outputs": [
        {
          "components": [
            {
              "internalType": "uint256",
              "name": "volume",
              "type": "uint256"
            },
            {
              "internalType": "uint256",
              "name": "itemsSold",
              "type": "uint256"
            }
          ],
          "internalType": "struct Sora.Stats",
          "name": "",
          "type": "tuple"
        }
      ],
      "stateMutability": "view",
      "type": "function"
    },
    {
      "inputs": [],
      "name": "withdrawFees",
      "outputs": [],
      "stateMutability": "nonpayable",
      "type": "function"
    }
  ],
  "bytecode": "0x60806040523480156200001157600080fd5b5060408051808201909152601b81527f68747470733a2f2f6170692e736f72612e636f6d2f696d6167652f00000000006020820152620000518162000063565b506200005d336200007c565b620001b1565b805162000078906002906020840190620000ce565b5050565b600380546001600160a01b038381166001600160a01b0319831681179093556040519116919082907f8be0079c531659141344cd1fd0a4f28419497f9722a3daafe3b4186f6b6457e090600090a35050565b828054620000dc9062000174565b90600052602060002090601f0160209004810192826200010057600085556200014b565b82601f106200011b57805160ff19168380011785556200014b565b828001600101855582156200014b579182015b828111156200014b5782518255916020019190600101906200012e565b50620001599291506200015d565b5090565b5b808211156200015957600081556001016200015e565b600181811c908216806200018957607f821691505b60208210811415620001ab57634e487b7160e01b600052602260045260246000fd5b50919050565b6131c680620001c16000396000f3fe6080604052600436106101345760003560e01c806381fab025116100ab578063c4599b221161006f578063c4599b221461038b578063e6282c6e146103b8578063e985e9c5146103d8578063f242432a14610421578063f2fde38b14610441578063f80a14b31461046157600080fd5b806381fab025146102c45780638da5cb5b146102e6578063a22cb4651461030e578063ab7c88ba1461032e578063bd85b0391461035e57600080fd5b8063301c5b90116100fd578063301c5b901461020b578063476343ee1461021e5780634e1273f4146102335780634f558e7914610260578063688859931461028f578063715018a6146102af57600080fd5b8062fdd58e1461013957806301ffc9a71461016c57806302fe53051461019c5780630e89341c146101be5780632eb2c2d6146101eb575b600080fd5b34801561014557600080fd5b50610159610154366004612907565b610481565b6040519081526020015b60405180910390f35b34801561017857600080fd5b5061018c610187366004612a09565b610517565b6040519015158152602001610163565b3480156101a857600080fd5b506101bc6101b7366004612a41565b610569565b005b3480156101ca57600080fd5b506101de6101d9366004612aed565b61057d565b6040516101639190612e3d565b3480156101f757600080fd5b506101bc6102063660046127c8565b61061f565b6101bc610219366004612b1d565b61066b565b34801561022a57600080fd5b506101bc610def565b34801561023f57600080fd5b5061025361024e36600461298c565b610e23565b6040516101639190612dfc565b34801561026c57600080fd5b5061018c61027b366004612aed565b600090815260046020526040902054151590565b34801561029b57600080fd5b506101bc6102aa366004612a7c565b610f85565b3480156102bb57600080fd5b506101bc611079565b3480156102d057600080fd5b506102d961108d565b6040516101639190612d9b565b3480156102f257600080fd5b506003546040516001600160a01b039091168152602001610163565b34801561031a57600080fd5b506101bc6103293660046128d1565b6111bd565b34801561033a57600080fd5b506103436111cc565b60408051825181526020928301519281019290925201610163565b34801561036a57600080fd5b50610159610379366004612aed565b60009081526004602052604090205490565b34801561039757600080fd5b506103ab6103a6366004612aed565b611203565b6040516101639190612f76565b3480156103c457600080fd5b506101bc6103d3366004612aed565b611359565b3480156103e457600080fd5b5061018c6103f3366004612796565b6001600160a01b03918216600090815260016020908152604080832093909416825291909152205460ff1690565b34801561042d57600080fd5b506101bc61043c36600461286e565b6114e3565b34801561044d57600080fd5b506101bc61045c366004612775565b611528565b34801561046d57600080fd5b5061015961047c366004612930565b61159e565b60006001600160a01b0383166104f15760405162461bcd60e51b815260206004820152602a60248201527f455243313135353a2061646472657373207a65726f206973206e6f742061207660448201526930b634b21037bbb732b960b11b60648201526084015b60405180910390fd5b506000908152602081815260408083206001600160a01b03949094168352929052205490565b60006001600160e01b03198216636cdb3d1360e11b148061054857506001600160e01b031982166303a24d0760e21b145b8061056357506301ffc9a760e01b6001600160e01b03198316145b92915050565b610571611a6f565b61057a81611ac9565b50565b600081815260096020526040902080546060919061059a9061301b565b80601f01602080910402602001604051908101604052809291908181526020018280546105c69061301b565b80156106135780601f106105e857610100808354040283529160200191610613565b820191906000526020600020905b8154815290600101906020018083116105f657829003601f168201915b50505050509050919050565b6001600160a01b03851633148061063b575061063b85336103f3565b6106575760405162461bcd60e51b81526004016104e890612e50565b6106648585858585611adc565b5050505050565b600082815260086020526040902080546007909101546001600160a01b039091169060ff16151560011415610765576000805b60008581526008602052604090206002015481101561071d5760008581526008602052604090206002018054339190839081106106eb57634e487b7160e01b600052603260045260246000fd5b6000918252602090912001546001600160a01b0316141561070b57600191505b8061071581613083565b91505061069e565b506001811515146107635760405162461bcd60e51b815260206004820152601060248201526f53616c6520697320707269766174652160801b60448201526064016104e8565b505b6000838152600860205260409020600101546001600160a01b03163314156107cf5760405162461bcd60e51b815260206004820152601a60248201527f43616e27742062757920796f7572206f6e7720746f6b656e732100000000000060448201526064016104e8565b8160011461082b5760405162461bcd60e51b8152602060048201526024808201527f596f752063616e206f6e6c7920676574206f6e6520746f6b656e20617420612060448201526374696d6560e01b60648201526084016104e8565b600083815260086020526040902060050154610848908390612fe5565b34101561088d5760405162461bcd60e51b8152602060048201526013602482015272496e73756666696369656e742066756e64732160681b60448201526064016104e8565b6000838152600860205260409081902060018101546003909101549151627eeac760e11b81526001600160a01b039182166004820152602481019290925283919083169062fdd58e9060440160206040518083038186803b1580156108f157600080fd5b505afa158015610905573d6000803e3d6000fd5b505050506040513d601f19601f820116820180604052508101906109299190612b05565b10156109825760405162461bcd60e51b815260206004820152602260248201527f53656c6c657220646f65736e2774206861766520656e6f75676820746f6b656e604482015261732160f01b60648201526084016104e8565b600083815260086020526040902060070154610100900460ff16156109e95760405162461bcd60e51b815260206004820152601e60248201527f4c697374696e67206e6f7420617661696c61626c6520616e796d6f726521000060448201526064016104e8565b600083815260086020526040902060060154821115610a4a5760405162461bcd60e51b815260206004820152601760248201527f4e6f7420656e6f75676820746f6b656e73206c6566742100000000000000000060448201526064016104e8565b610a58600680546001019055565b600083815260086020526040902060050154610a75908390612fe5565b60076000828254610a869190612fad565b909155505060008381526008602052604081206006018054849290610aac908490613004565b90915550829050600a610ac0600186613004565b81548110610ade57634e487b7160e01b600052603260045260246000fd5b90600052602060002090600902016006016000828254610afe9190613004565b909155505060008381526008602052604090206007015460ff16610bb05760008381526008602090815260408220600201805460018181018355918452919092200180546001600160a01b03191633179055600a90610b5d9085613004565b81548110610b7b57634e487b7160e01b600052603260045260246000fd5b60009182526020808320600260099093020191909101805460018101825590835291200180546001600160a01b031916331790555b600083815260086020526040902060060154610c39576000838152600860205260409020600701805461ff0019166101001790556001600a610bf28286613004565b81548110610c1057634e487b7160e01b600052603260045260246000fd5b906000526020600020906009020160070160016101000a81548160ff0219169083151502179055505b600083815260086020908152604091829020805460018201546003830154600584015460079094015486516001600160a01b0394851681529390921694830194909452339482019490945260608101929092526080820185905260a082015260ff909116151560c08201527f765802dc5ad39e08f0aea7b3815cd1e0de8ab690a596190a723092423de2dee79060e00160405180910390a1610cdc3060016111bd565b60008381526008602052604080822060018101546003909101549151637921219560e11b81526001600160a01b03918216600482015233602482015260448101929092526064820185905260a0608483015260a48201929092529082169063f242432a9060c401600060405180830381600087803b158015610d5d57600080fd5b505af1158015610d71573d6000803e3d6000fd5b505050600084815260086020526040902060018101546005909101546001600160a01b0390911691506108fc90603290610dac908690612fe5565b610db69190612fc5565b610dc1906031612fe5565b6040518115909202916000818181858888f19350505050158015610de9573d6000803e3d6000fd5b50505050565b610df7611a6f565b60405133904780156108fc02916000818181858888f1935050505015801561057a573d6000803e3d6000fd5b60608151835114610e885760405162461bcd60e51b815260206004820152602960248201527f455243313135353a206163636f756e747320616e6420696473206c656e677468604482015268040dad2e6dac2e8c6d60bb1b60648201526084016104e8565b6000835167ffffffffffffffff811115610eb257634e487b7160e01b600052604160045260246000fd5b604051908082528060200260200182016040528015610edb578160200160208202803683370190505b50905060005b8451811015610f7d57610f42858281518110610f0d57634e487b7160e01b600052603260045260246000fd5b6020026020010151858381518110610f3557634e487b7160e01b600052603260045260246000fd5b6020026020010151610481565b828281518110610f6257634e487b7160e01b600052603260045260246000fd5b6020908102919091010152610f7681613083565b9050610ee1565b509392505050565b60008411610fe05760405162461bcd60e51b815260206004820152602260248201527f546f6b656e2073686f756c642062652067726561746572207468616e207a6572604482015261379760f11b60648201526084016104e8565b600084815260046020526040902054156110345760405162461bcd60e51b81526020600482015260156024820152742a37b5b2b71030b63932b0b23c9032bc34b9ba399760591b60448201526064016104e8565b61103f3060016111bd565b61105a33858560405180602001604052806000815250611cdb565b6110648486611dfe565b611071308585858561159e565b505050505050565b611081611a6f565b61108b6000611e22565b565b6060600a805480602002602001604051908101604052809291908181526020016000905b828210156111b457600084815260209081902060408051610140810182526009860290920180546001600160a01b03908116845260018201541683850152600281018054835181870281018701855281815294959294938601939283018282801561114557602002820191906000526020600020905b81546001600160a01b03168152600190910190602001808311611127575b50505091835250506003820154602080830191909152600483015460408301526005830154606083015260068301546080830152600783015460ff808216151560a085015261010090910416151560c083015260089092015460e09091015290825260019290920191016110b1565b50505050905090565b6111c8338383611e74565b5050565b6040805180820190915260008082526020820152604051806040016040528060075481526020016111fc60065490565b9052919050565b61126f60405180610140016040528060006001600160a01b0316815260200160006001600160a01b031681526020016060815260200160008152602001600081526020016000815260200160008152602001600015158152602001600015158152602001600081525090565b60008281526008602090815260409182902082516101408101845281546001600160a01b03908116825260018301541681840152600282018054855181860281018601875281815292959394938601938301828280156112f857602002820191906000526020600020905b81546001600160a01b031681526001909101906020018083116112da575b505050918352505060038201546020820152600482015460408201526005820154606082015260068201546080820152600782015460ff808216151560a084015261010090910416151560c082015260089091015460e09091015292915050565b6000818152600860205260409020600101546001600160a01b031633146113ba5760405162461bcd60e51b81526020600482015260156024820152744e6f742063616c6c65722773206c697374696e672160581b60448201526064016104e8565b600081815260086020526040902060070154610100900460ff161561141a5760405162461bcd60e51b81526020600482015260166024820152754c697374696e67206e6f7420617661696c61626c652160501b60448201526064016104e8565b6000818152600860205260409020600701805461ff0019166101001790556001600a6114468284613004565b8154811061146457634e487b7160e01b600052603260045260246000fd5b60009182526020808320600992909202909101600701805461ff0019166101009415159490940293909317909255828152600882526040908190205481516001600160a01b0390911681529182018390527f53df6f80c006573b58e17d6440b870b40592881a21c175cde20004a4135dd460910160405180910390a150565b6001600160a01b0385163314806114ff57506114ff85336103f3565b61151b5760405162461bcd60e51b81526004016104e890612e50565b6106648585858585611f55565b611530611a6f565b6001600160a01b0381166115955760405162461bcd60e51b815260206004820152602660248201527f4f776e61626c653a206e6577206f776e657220697320746865207a65726f206160448201526564647265737360d01b60648201526084016104e8565b61057a81611e22565b600085846115ee5760405162461bcd60e51b815260206004820152601e60248201527f416d6f756e74206d7573742062652067726561746572207468616e203021000060448201526064016104e8565b604051627eeac760e11b81523360048201526024810187905285906001600160a01b0383169062fdd58e9060440160206040518083038186803b15801561163457600080fd5b505afa158015611648573d6000803e3d6000fd5b505050506040513d601f19601f8201168201806040525081019061166c9190612b05565b10156116ba5760405162461bcd60e51b815260206004820152601c60248201527f43616c6c6572206d757374206f776e20676976656e20746f6b656e210000000060448201526064016104e8565b60405163e985e9c560e01b81523360048201523060248201526001600160a01b0382169063e985e9c59060440160206040518083038186803b1580156116ff57600080fd5b505afa158015611713573d6000803e3d6000fd5b505050506040513d601f19601f8201168201806040525081019061173791906129ed565b6117835760405162461bcd60e51b815260206004820152601a60248201527f436f6e7472616374206d75737420626520617070726f7665642100000000000060448201526064016104e8565b82511515611795600580546001019055565b60006117a060055490565b90506040518061014001604052808a6001600160a01b03168152602001336001600160a01b03168152602001868152602001898152602001888152602001878152602001888152602001831515815260200160001515815260200161180460055490565b9052600082815260086020908152604091829020835181546001600160a01b039182166001600160a01b03199182161783558584015160018401805491909316911617905591830151805161185f92600285019201906124da565b50606082015160038201556080820151600482015560a0820151600582015560c0820151600682015560e08201516007820180546101008086015115150261ff00199315159390931661ffff199091161791909117905561012090910151600891820155600082815260209190915260408120600a80546001818101835591909352815460099093027fc65a7bb8d6351c1cf70c95a316cc6a92839c986682d98bc35f958f4883f9d2a8810180546001600160a01b03199081166001600160a01b03968716178255928401547fc65a7bb8d6351c1cf70c95a316cc6a92839c986682d98bc35f958f4883f9d2a983018054909416951694909417909155600282018054929392611992927fc65a7bb8d6351c1cf70c95a316cc6a92839c986682d98bc35f958f4883f9d2aa01919061253f565b506003828101549082015560048083015490820155600580830154818301556006808401549083015560078084018054918401805460ff938416151560ff19821681178355925461010090819004909416151590930261ff001990921661ffff199093169290921717905560089283015492909101919091557fde961a5f650c3228d746e3dfa928fc1104078f8b7f342120b842676588248915908a9033908b908b908b908b908990611a43905490565b604051611a57989796959493929190612d41565b60405180910390a16005549998505050505050505050565b6003546001600160a01b0316331461108b5760405162461bcd60e51b815260206004820181905260248201527f4f776e61626c653a2063616c6c6572206973206e6f7420746865206f776e657260448201526064016104e8565b80516111c890600290602084019061257f565b8151835114611b3e5760405162461bcd60e51b815260206004820152602860248201527f455243313135353a2069647320616e6420616d6f756e7473206c656e677468206044820152670dad2e6dac2e8c6d60c31b60648201526084016104e8565b6001600160a01b038416611b645760405162461bcd60e51b81526004016104e890612ee7565b33611b7381878787878761208d565b60005b8451811015611c75576000858281518110611ba157634e487b7160e01b600052603260045260246000fd5b602002602001015190506000858381518110611bcd57634e487b7160e01b600052603260045260246000fd5b602090810291909101810151600084815280835260408082206001600160a01b038e168352909352919091205490915081811015611c1d5760405162461bcd60e51b81526004016104e890612f2c565b6000838152602081815260408083206001600160a01b038e8116855292528083208585039055908b16825281208054849290611c5a908490612fad565b9250508190555050505080611c6e90613083565b9050611b76565b50846001600160a01b0316866001600160a01b0316826001600160a01b03167f4a39dc06d4c0dbc64b70af90fd698a233a518aa5d07e595d983b8c0526c8f7fb8787604051611cc5929190612e0f565b60405180910390a461107181878787878761209b565b6001600160a01b038416611d3b5760405162461bcd60e51b815260206004820152602160248201527f455243313135353a206d696e7420746f20746865207a65726f206164647265736044820152607360f81b60648201526084016104e8565b336000611d4785612206565b90506000611d5485612206565b9050611d658360008985858961208d565b6000868152602081815260408083206001600160a01b038b16845290915281208054879290611d95908490612fad565b909155505060408051878152602081018790526001600160a01b03808a1692600092918716917fc3d58168c5ae7397731d063d5bbf3d657854427343f4c083240f7aacaa2d0f62910160405180910390a4611df58360008989898961225f565b50505050505050565b60008281526009602090815260409091208251611e1d9284019061257f565b505050565b600380546001600160a01b038381166001600160a01b0319831681179093556040519116919082907f8be0079c531659141344cd1fd0a4f28419497f9722a3daafe3b4186f6b6457e090600090a35050565b816001600160a01b0316836001600160a01b03161415611ee85760405162461bcd60e51b815260206004820152602960248201527f455243313135353a2073657474696e6720617070726f76616c20737461747573604482015268103337b91039b2b63360b91b60648201526084016104e8565b6001600160a01b03838116600081815260016020908152604080832094871680845294825291829020805460ff191686151590811790915591519182527f17307eab39ab6107e8899845ad3d59bd9653f200f220920489ca2b5937696c31910160405180910390a3505050565b6001600160a01b038416611f7b5760405162461bcd60e51b81526004016104e890612ee7565b336000611f8785612206565b90506000611f9485612206565b9050611fa483898985858961208d565b6000868152602081815260408083206001600160a01b038c16845290915290205485811015611fe55760405162461bcd60e51b81526004016104e890612f2c565b6000878152602081815260408083206001600160a01b038d8116855292528083208985039055908a16825281208054889290612022908490612fad565b909155505060408051888152602081018890526001600160a01b03808b16928c821692918816917fc3d58168c5ae7397731d063d5bbf3d657854427343f4c083240f7aacaa2d0f62910160405180910390a4612082848a8a8a8a8a61225f565b505050505050505050565b611071868686868686612329565b6001600160a01b0384163b156110715760405163bc197c8160e01b81526001600160a01b0385169063bc197c81906120df9089908990889088908890600401612c9e565b602060405180830381600087803b1580156120f957600080fd5b505af1925050508015612129575060408051601f3d908101601f1916820190925261212691810190612a25565b60015b6121d6576121356130ca565b806308c379a0141561216f575061214a6130e2565b806121555750612171565b8060405162461bcd60e51b81526004016104e89190612e3d565b505b60405162461bcd60e51b815260206004820152603460248201527f455243313135353a207472616e7366657220746f206e6f6e20455243313135356044820152732932b1b2b4bb32b91034b6b83632b6b2b73a32b960611b60648201526084016104e8565b6001600160e01b0319811663bc197c8160e01b14611df55760405162461bcd60e51b81526004016104e890612e9f565b6040805160018082528183019092526060916000919060208083019080368337019050509050828160008151811061224e57634e487b7160e01b600052603260045260246000fd5b602090810291909101015292915050565b6001600160a01b0384163b156110715760405163f23a6e6160e01b81526001600160a01b0385169063f23a6e61906122a39089908990889088908890600401612cfc565b602060405180830381600087803b1580156122bd57600080fd5b505af19250505080156122ed575060408051601f3d908101601f191682019092526122ea91810190612a25565b60015b6122f9576121356130ca565b6001600160e01b0319811663f23a6e6160e01b14611df55760405162461bcd60e51b81526004016104e890612e9f565b6001600160a01b0385166123cc5760005b83518110156123ca5782818151811061236357634e487b7160e01b600052603260045260246000fd5b60200260200101516004600086848151811061238f57634e487b7160e01b600052603260045260246000fd5b6020026020010151815260200190815260200160002060008282546123b49190612fad565b909155506123c3905081613083565b905061233a565b505b6001600160a01b0384166110715760005b8351811015611df557600084828151811061240857634e487b7160e01b600052603260045260246000fd5b60200260200101519050600084838151811061243457634e487b7160e01b600052603260045260246000fd5b60200260200101519050600060046000848152602001908152602001600020549050818110156124b75760405162461bcd60e51b815260206004820152602860248201527f455243313135353a206275726e20616d6f756e74206578636565647320746f74604482015267616c537570706c7960c01b60648201526084016104e8565b600092835260046020526040909220910390556124d381613083565b90506123dd565b82805482825590600052602060002090810192821561252f579160200282015b8281111561252f57825182546001600160a01b0319166001600160a01b039091161782556020909201916001909101906124fa565b5061253b9291506125f3565b5090565b82805482825590600052602060002090810192821561252f5760005260206000209182015b8281111561252f578254825591600101919060010190612564565b82805461258b9061301b565b90600052602060002090601f0160209004810192826125ad576000855561252f565b82601f106125c657805160ff191683800117855561252f565b8280016001018555821561252f579182015b8281111561252f5782518255916020019190600101906125d8565b5b8082111561253b57600081556001016125f4565b80356001600160a01b038116811461261f57600080fd5b919050565b600082601f830112612634578081fd5b8135602061264182612f89565b60405161264e8282613056565b8381528281019150858301600585901b8701840188101561266d578586fd5b855b858110156126925761268082612608565b8452928401929084019060010161266f565b5090979650505050505050565b600082601f8301126126af578081fd5b813560206126bc82612f89565b6040516126c98282613056565b8381528281019150858301600585901b870184018810156126e8578586fd5b855b85811015612692578135845292840192908401906001016126ea565b600082601f830112612716578081fd5b813567ffffffffffffffff811115612730576127306130b4565b604051612747601f8301601f191660200182613056565b81815284602083860101111561275b578283fd5b816020850160208301379081016020019190915292915050565b600060208284031215612786578081fd5b61278f82612608565b9392505050565b600080604083850312156127a8578081fd5b6127b183612608565b91506127bf60208401612608565b90509250929050565b600080600080600060a086880312156127df578081fd5b6127e886612608565b94506127f660208701612608565b9350604086013567ffffffffffffffff80821115612812578283fd5b61281e89838a0161269f565b94506060880135915080821115612833578283fd5b61283f89838a0161269f565b93506080880135915080821115612854578283fd5b5061286188828901612706565b9150509295509295909350565b600080600080600060a08688031215612885578081fd5b61288e86612608565b945061289c60208701612608565b93506040860135925060608601359150608086013567ffffffffffffffff8111156128c5578182fd5b61286188828901612706565b600080604083850312156128e3578182fd5b6128ec83612608565b915060208301356128fc8161316c565b809150509250929050565b60008060408385031215612919578182fd5b61292283612608565b946020939093013593505050565b600080600080600060a08688031215612947578081fd5b61295086612608565b9450602086013593506040860135925060608601359150608086013567ffffffffffffffff811115612980578182fd5b61286188828901612624565b6000806040838503121561299e578182fd5b823567ffffffffffffffff808211156129b5578384fd5b6129c186838701612624565b935060208501359150808211156129d6578283fd5b506129e38582860161269f565b9150509250929050565b6000602082840312156129fe578081fd5b815161278f8161316c565b600060208284031215612a1a578081fd5b813561278f8161317a565b600060208284031215612a36578081fd5b815161278f8161317a565b600060208284031215612a52578081fd5b813567ffffffffffffffff811115612a68578182fd5b612a7484828501612706565b949350505050565b600080600080600060a08688031215612a93578283fd5b853567ffffffffffffffff80821115612aaa578485fd5b612ab689838a01612706565b96506020880135955060408801359450606088013593506080880135915080821115612ae0578283fd5b5061286188828901612624565b600060208284031215612afe578081fd5b5035919050565b600060208284031215612b16578081fd5b5051919050565b60008060408385031215612b2f578182fd5b50508035926020909101359150565b6000815180845260208085019450808401835b83811015612b765781516001600160a01b031687529582019590820190600101612b51565b509495945050505050565b6000815180845260208085019450808401835b83811015612b7657815187529582019590820190600101612b94565b60008151808452815b81811015612bd557602081850181015186830182015201612bb9565b81811115612be65782602083870101525b50601f01601f19169290920160200192915050565b80516001600160a01b0316825260006101406020830151612c2760208601826001600160a01b03169052565b506040830151816040860152612c3f82860182612b3e565b915050606083015160608501526080830151608085015260a083015160a085015260c083015160c085015260e0830151612c7d60e086018215159052565b50610100838101511515908501526101209283015192909301919091525090565b6001600160a01b0386811682528516602082015260a060408201819052600090612cca90830186612b81565b8281036060840152612cdc8186612b81565b90508281036080840152612cf08185612bb0565b98975050505050505050565b6001600160a01b03868116825285166020820152604081018490526060810183905260a060808201819052600090612d3690830184612bb0565b979650505050505050565b6001600160a01b0389811682528816602082015260408101879052606081018690526080810185905261010060a08201819052600090612d8383820187612b3e565b94151560c0840152505060e001529695505050505050565b6000602080830181845280855180835260408601915060408160051b8701019250838701855b82811015612def57603f19888603018452612ddd858351612bfb565b94509285019290850190600101612dc1565b5092979650505050505050565b60208152600061278f6020830184612b81565b604081526000612e226040830185612b81565b8281036020840152612e348185612b81565b95945050505050565b60208152600061278f6020830184612bb0565b6020808252602f908201527f455243313135353a2063616c6c6572206973206e6f7420746f6b656e206f776e60408201526e195c881b9bdc88185c1c1c9bdd9959608a1b606082015260800190565b60208082526028908201527f455243313135353a204552433131353552656365697665722072656a656374656040820152676420746f6b656e7360c01b606082015260800190565b60208082526025908201527f455243313135353a207472616e7366657220746f20746865207a65726f206164604082015264647265737360d81b606082015260800190565b6020808252602a908201527f455243313135353a20696e73756666696369656e742062616c616e636520666f60408201526939103a3930b739b332b960b11b606082015260800190565b60208152600061278f6020830184612bfb565b600067ffffffffffffffff821115612fa357612fa36130b4565b5060051b60200190565b60008219821115612fc057612fc061309e565b500190565b600082612fe057634e487b7160e01b81526012600452602481fd5b500490565b6000816000190483118215151615612fff57612fff61309e565b500290565b6000828210156130165761301661309e565b500390565b600181811c9082168061302f57607f821691505b6020821081141561305057634e487b7160e01b600052602260045260246000fd5b50919050565b601f8201601f1916810167ffffffffffffffff8111828210171561307c5761307c6130b4565b6040525050565b60006000198214156130975761309761309e565b5060010190565b634e487b7160e01b600052601160045260246000fd5b634e487b7160e01b600052604160045260246000fd5b600060033d11156130df57600481823e5160e01c5b90565b600060443d10156130f05790565b6040516003193d81016004833e81513d67ffffffffffffffff816024840111818411171561312057505050505090565b82850191508151818111156131385750505050505090565b843d87010160208285010111156131525750505050505090565b61316160208286010187613056565b509095945050505050565b801515811461057a57600080fd5b6001600160e01b03198116811461057a57600080fdfea26469706673582212205de287d2a37d5dead81c544a7fdafe87dd0b36ac75baaf24fd35f2d35e507c7a64736f6c63430008040033",
  "linkReferences": {},
  "deployedLinkReferences": {}
}